{
  "_format": "hh-sol-artifact-1",
  "contractName": "MyToken",
  "sourceName": "contracts/MyToken.sol",
  "abi": [
    {
      "inputs": [
        {
          "internalType": "uint256",
          "name": "_NFTPriceInWei",
          "type": "uint256"
        }
      ],
      "stateMutability": "nonpayable",
      "type": "constructor"
    },
    {
      "anonymous": false,
      "inputs": [
        {
          "indexed": true,
          "internalType": "address",
          "name": "owner",
          "type": "address"
        },
        {
          "indexed": true,
          "internalType": "address",
          "name": "approved",
          "type": "address"
        },
        {
          "indexed": true,
          "internalType": "uint256",
          "name": "tokenId",
          "type": "uint256"
        }
      ],
      "name": "Approval",
      "type": "event"
    },
    {
      "anonymous": false,
      "inputs": [
        {
          "indexed": true,
          "internalType": "address",
          "name": "owner",
          "type": "address"
        },
        {
          "indexed": true,
          "internalType": "address",
          "name": "operator",
          "type": "address"
        },
        {
          "indexed": false,
          "internalType": "bool",
          "name": "approved",
          "type": "bool"
        }
      ],
      "name": "ApprovalForAll",
      "type": "event"
    },
    {
      "anonymous": false,
      "inputs": [
        {
          "indexed": true,
          "internalType": "address",
          "name": "previousOwner",
          "type": "address"
        },
        {
          "indexed": true,
          "internalType": "address",
          "name": "newOwner",
          "type": "address"
        }
      ],
      "name": "OwnershipTransferred",
      "type": "event"
    },
    {
      "anonymous": false,
      "inputs": [
        {
          "indexed": true,
          "internalType": "address",
          "name": "from",
          "type": "address"
        },
        {
          "indexed": true,
          "internalType": "address",
          "name": "to",
          "type": "address"
        },
        {
          "indexed": true,
          "internalType": "uint256",
          "name": "tokenId",
          "type": "uint256"
        }
      ],
      "name": "Transfer",
      "type": "event"
    },
    {
      "inputs": [
        {
          "internalType": "address",
          "name": "to",
          "type": "address"
        },
        {
          "internalType": "uint256",
          "name": "tokenId",
          "type": "uint256"
        }
      ],
      "name": "approve",
      "outputs": [],
      "stateMutability": "nonpayable",
      "type": "function"
    },
    {
      "inputs": [
        {
          "internalType": "address",
          "name": "owner",
          "type": "address"
        }
      ],
      "name": "balanceOf",
      "outputs": [
        {
          "internalType": "uint256",
          "name": "",
          "type": "uint256"
        }
      ],
      "stateMutability": "view",
      "type": "function"
    },
    {
      "inputs": [],
      "name": "buyNFT",
      "outputs": [
        {
          "internalType": "bool",
          "name": "",
          "type": "bool"
        }
      ],
      "stateMutability": "payable",
      "type": "function"
    },
    {
      "inputs": [
        {
          "internalType": "uint256",
          "name": "_NFTPriceInWei",
          "type": "uint256"
        }
      ],
      "name": "changePrice",
      "outputs": [
        {
          "internalType": "uint256",
          "name": "",
          "type": "uint256"
        }
      ],
      "stateMutability": "nonpayable",
      "type": "function"
    },
    {
      "inputs": [
        {
          "internalType": "uint256",
          "name": "tokenId",
          "type": "uint256"
        },
        {
          "internalType": "string",
          "name": "_tokenURI",
          "type": "string"
        }
      ],
      "name": "changeTokenURI",
      "outputs": [],
      "stateMutability": "nonpayable",
      "type": "function"
    },
    {
      "inputs": [],
      "name": "endSale",
      "outputs": [
        {
          "internalType": "bool",
          "name": "",
          "type": "bool"
        }
      ],
      "stateMutability": "nonpayable",
      "type": "function"
    },
    {
      "inputs": [
        {
          "internalType": "uint256",
          "name": "tokenId",
          "type": "uint256"
        }
      ],
      "name": "getApproved",
      "outputs": [
        {
          "internalType": "address",
          "name": "",
          "type": "address"
        }
      ],
      "stateMutability": "view",
      "type": "function"
    },
    {
      "inputs": [],
      "name": "getNFTPrice",
      "outputs": [
        {
          "internalType": "uint256",
          "name": "",
          "type": "uint256"
        }
      ],
      "stateMutability": "view",
      "type": "function"
    },
    {
      "inputs": [
        {
          "internalType": "address",
          "name": "owner",
          "type": "address"
        },
        {
          "internalType": "address",
          "name": "operator",
          "type": "address"
        }
      ],
      "name": "isApprovedForAll",
      "outputs": [
        {
          "internalType": "bool",
          "name": "",
          "type": "bool"
        }
      ],
      "stateMutability": "view",
      "type": "function"
    },
    {
      "inputs": [],
      "name": "name",
      "outputs": [
        {
          "internalType": "string",
          "name": "",
          "type": "string"
        }
      ],
      "stateMutability": "view",
      "type": "function"
    },
    {
      "inputs": [],
      "name": "owner",
      "outputs": [
        {
          "internalType": "address",
          "name": "",
          "type": "address"
        }
      ],
      "stateMutability": "view",
      "type": "function"
    },
    {
      "inputs": [
        {
          "internalType": "uint256",
          "name": "tokenId",
          "type": "uint256"
        }
      ],
      "name": "ownerOf",
      "outputs": [
        {
          "internalType": "address",
          "name": "",
          "type": "address"
        }
      ],
      "stateMutability": "view",
      "type": "function"
    },
    {
      "inputs": [],
      "name": "renounceOwnership",
      "outputs": [],
      "stateMutability": "nonpayable",
      "type": "function"
    },
    {
      "inputs": [
        {
          "internalType": "address",
          "name": "from",
          "type": "address"
        },
        {
          "internalType": "address",
          "name": "to",
          "type": "address"
        },
        {
          "internalType": "uint256",
          "name": "tokenId",
          "type": "uint256"
        }
      ],
      "name": "safeTransferFrom",
      "outputs": [],
      "stateMutability": "nonpayable",
      "type": "function"
    },
    {
      "inputs": [
        {
          "internalType": "address",
          "name": "from",
          "type": "address"
        },
        {
          "internalType": "address",
          "name": "to",
          "type": "address"
        },
        {
          "internalType": "uint256",
          "name": "tokenId",
          "type": "uint256"
        },
        {
          "internalType": "bytes",
          "name": "_data",
          "type": "bytes"
        }
      ],
      "name": "safeTransferFrom",
      "outputs": [],
      "stateMutability": "nonpayable",
      "type": "function"
    },
    {
      "inputs": [
        {
          "internalType": "address",
          "name": "operator",
          "type": "address"
        },
        {
          "internalType": "bool",
          "name": "approved",
          "type": "bool"
        }
      ],
      "name": "setApprovalForAll",
      "outputs": [],
      "stateMutability": "nonpayable",
      "type": "function"
    },
    {
      "inputs": [],
      "name": "startSale",
      "outputs": [
        {
          "internalType": "bool",
          "name": "",
          "type": "bool"
        }
      ],
      "stateMutability": "nonpayable",
      "type": "function"
    },
    {
      "inputs": [
        {
          "internalType": "bytes4",
          "name": "interfaceId",
          "type": "bytes4"
        }
      ],
      "name": "supportsInterface",
      "outputs": [
        {
          "internalType": "bool",
          "name": "",
          "type": "bool"
        }
      ],
      "stateMutability": "view",
      "type": "function"
    },
    {
      "inputs": [],
      "name": "symbol",
      "outputs": [
        {
          "internalType": "string",
          "name": "",
          "type": "string"
        }
      ],
      "stateMutability": "view",
      "type": "function"
    },
    {
      "inputs": [
        {
          "internalType": "uint256",
          "name": "tokenId",
          "type": "uint256"
        }
      ],
      "name": "tokenURI",
      "outputs": [
        {
          "internalType": "string",
          "name": "",
          "type": "string"
        }
      ],
      "stateMutability": "view",
      "type": "function"
    },
    {
      "inputs": [
        {
          "internalType": "address",
          "name": "from",
          "type": "address"
        },
        {
          "internalType": "address",
          "name": "to",
          "type": "address"
        },
        {
          "internalType": "uint256",
          "name": "tokenId",
          "type": "uint256"
        }
      ],
      "name": "transferFrom",
      "outputs": [],
      "stateMutability": "nonpayable",
      "type": "function"
    },
    {
      "inputs": [
        {
          "internalType": "address",
          "name": "newOwner",
          "type": "address"
        }
      ],
      "name": "transferOwnership",
      "outputs": [],
      "stateMutability": "nonpayable",
      "type": "function"
    }
  ],
  "bytecode": "0x60806040523480156200001157600080fd5b5060405162001e4e38038062001e4e8339810160408190526200003491620001b6565b604080518082018252600781526626bcaa37b5b2b760c91b6020808301918252835180850190945260038452624d544b60e81b9084015281519192916200007e9160009162000110565b5080516200009490600190602084019062000110565b505050620000b1620000ab620000ba60201b60201c565b620000be565b600c556200020c565b3390565b600780546001600160a01b038381166001600160a01b0319831681179093556040519116919082907f8be0079c531659141344cd1fd0a4f28419497f9722a3daafe3b4186f6b6457e090600090a35050565b8280546200011e90620001cf565b90600052602060002090601f0160209004810192826200014257600085556200018d565b82601f106200015d57805160ff19168380011785556200018d565b828001600101855582156200018d579182015b828111156200018d57825182559160200191906001019062000170565b506200019b9291506200019f565b5090565b5b808211156200019b5760008155600101620001a0565b600060208284031215620001c8578081fd5b5051919050565b600181811c90821680620001e457607f821691505b602082108114156200020657634e487b7160e01b600052602260045260246000fd5b50919050565b611c32806200021c6000396000f3fe6080604052600436106101355760003560e01c80638da5cb5b116100ab578063b88d4fde1161006f578063b88d4fde14610354578063bff29cee14610374578063c87b56dd1461037c578063e985e9c51461039c578063f2fde38b146103e5578063fb107a4f1461040557610135565b80638da5cb5b146102cc57806395d89b41146102ea578063a22cb465146102ff578063a2b40d191461031f578063b66a0e5d1461033f57610135565b8063380d831b116100fd578063380d831b1461020b57806342842e0e146102295780636352211e1461024957806370a0823114610269578063715018a6146102975780637fb3a9a2146102ac57610135565b806301ffc9a71461013a57806306fdde031461016f578063081812fc14610191578063095ea7b3146101c957806323b872dd146101eb575b600080fd5b34801561014657600080fd5b5061015a6101553660046118a0565b61041a565b60405190151581526020015b60405180910390f35b34801561017b57600080fd5b5061018461046e565b60405161016691906119e0565b34801561019d57600080fd5b506101b16101ac3660046118d8565b610500565b6040516001600160a01b039091168152602001610166565b3480156101d557600080fd5b506101e96101e4366004611877565b61058d565b005b3480156101f757600080fd5b506101e9610206366004611789565b6106a3565b34801561021757600080fd5b506009805460ff19169055600061015a565b34801561023557600080fd5b506101e9610244366004611789565b6106d4565b34801561025557600080fd5b506101b16102643660046118d8565b6106ef565b34801561027557600080fd5b5061028961028436600461173d565b610766565b604051908152602001610166565b3480156102a357600080fd5b506101e96107ed565b3480156102b857600080fd5b506101e96102c73660046118f0565b610823565b3480156102d857600080fd5b506007546001600160a01b03166101b1565b3480156102f657600080fd5b50610184610831565b34801561030b57600080fd5b506101e961031a36600461183d565b610840565b34801561032b57600080fd5b5061028961033a3660046118d8565b610912565b34801561034b57600080fd5b5061015a610948565b34801561036057600080fd5b506101e961036f3660046117c4565b610974565b61015a6109ac565b34801561038857600080fd5b506101846103973660046118d8565b610ab7565b3480156103a857600080fd5b5061015a6103b7366004611757565b6001600160a01b03918216600090815260056020908152604080832093909416825291909152205460ff1690565b3480156103f157600080fd5b506101e961040036600461173d565b610ac2565b34801561041157600080fd5b50600c54610289565b60006001600160e01b031982166380ac58cd60e01b148061044b57506001600160e01b03198216635b5e139f60e01b145b8061046657506301ffc9a760e01b6001600160e01b03198316145b90505b919050565b60606000805461047d90611b3a565b80601f01602080910402602001604051908101604052809291908181526020018280546104a990611b3a565b80156104f65780601f106104cb576101008083540402835291602001916104f6565b820191906000526020600020905b8154815290600101906020018083116104d957829003601f168201915b5050505050905090565b600061050b82610b5d565b6105715760405162461bcd60e51b815260206004820152602c60248201527f4552433732313a20617070726f76656420717565727920666f72206e6f6e657860448201526b34b9ba32b73a103a37b5b2b760a11b60648201526084015b60405180910390fd5b506000908152600460205260409020546001600160a01b031690565b6000610598826106ef565b9050806001600160a01b0316836001600160a01b031614156106065760405162461bcd60e51b815260206004820152602160248201527f4552433732313a20617070726f76616c20746f2063757272656e74206f776e656044820152603960f91b6064820152608401610568565b336001600160a01b0382161480610622575061062281336103b7565b6106945760405162461bcd60e51b815260206004820152603860248201527f4552433732313a20617070726f76652063616c6c6572206973206e6f74206f7760448201527f6e6572206e6f7220617070726f76656420666f7220616c6c00000000000000006064820152608401610568565b61069e8383610b7a565b505050565b6106ad3382610be8565b6106c95760405162461bcd60e51b815260040161056890611a7a565b61069e838383610cd2565b61069e83838360405180602001604052806000815250610974565b6000818152600260205260408120546001600160a01b0316806104665760405162461bcd60e51b815260206004820152602960248201527f4552433732313a206f776e657220717565727920666f72206e6f6e657869737460448201526832b73a103a37b5b2b760b91b6064820152608401610568565b60006001600160a01b0382166107d15760405162461bcd60e51b815260206004820152602a60248201527f4552433732313a2062616c616e636520717565727920666f7220746865207a65604482015269726f206164647265737360b01b6064820152608401610568565b506001600160a01b031660009081526003602052604090205490565b6007546001600160a01b031633146108175760405162461bcd60e51b815260040161056890611a45565b6108216000610e72565b565b61082d8282610ec4565b5050565b60606001805461047d90611b3a565b6001600160a01b0382163314156108995760405162461bcd60e51b815260206004820152601960248201527f4552433732313a20617070726f766520746f2063616c6c6572000000000000006044820152606401610568565b3360008181526005602090815260408083206001600160a01b0387168085529252909120805460ff1916841515179055906001600160a01b03167f17307eab39ab6107e8899845ad3d59bd9653f200f220920489ca2b5937696c3183604051610906911515815260200190565b60405180910390a35050565b6007546000906001600160a01b0316331461093f5760405162461bcd60e51b815260040161056890611a45565b50600c81905590565b6009805460ff1916600117905542600a81905560009061096b9062278d00611acb565b600b5550600190565b61097e3383610be8565b61099a5760405162461bcd60e51b815260040161056890611a7a565b6109a684848484610f37565b50505050565b6000600c5434146109ff5760405162461bcd60e51b815260206004820152601d60248201527f706c6561736520627579207769746820636f72726563742070726963650000006044820152606401610568565b60095460ff1615156001148015610a185750600a544210155b8015610a265750600b544211155b610a725760405162461bcd60e51b815260206004820152601d60248201527f53616c65206e6f74207374617274656420796574206f7220656e6465640000006044820152606401610568565b610ab1336040518060400160405280602081526020017f68747470733a2f2f666c6f79646e66742e636f6d2f746f6b656e2f2671756f74815250610f6a565b50600190565b606061046682610f9c565b6007546001600160a01b03163314610aec5760405162461bcd60e51b815260040161056890611a45565b6001600160a01b038116610b515760405162461bcd60e51b815260206004820152602660248201527f4f776e61626c653a206e6577206f776e657220697320746865207a65726f206160448201526564647265737360d01b6064820152608401610568565b610b5a81610e72565b50565b6000908152600260205260409020546001600160a01b0316151590565b600081815260046020526040902080546001600160a01b0319166001600160a01b0384169081179091558190610baf826106ef565b6001600160a01b03167f8c5be1e5ebec7d5bd14f71427d1e84f3dd0314c0f7b2291e5b200ac8c7c3b92560405160405180910390a45050565b6000610bf382610b5d565b610c545760405162461bcd60e51b815260206004820152602c60248201527f4552433732313a206f70657261746f7220717565727920666f72206e6f6e657860448201526b34b9ba32b73a103a37b5b2b760a11b6064820152608401610568565b6000610c5f836106ef565b9050806001600160a01b0316846001600160a01b03161480610c9a5750836001600160a01b0316610c8f84610500565b6001600160a01b0316145b80610cca57506001600160a01b0380821660009081526005602090815260408083209388168352929052205460ff165b949350505050565b826001600160a01b0316610ce5826106ef565b6001600160a01b031614610d4d5760405162461bcd60e51b815260206004820152602960248201527f4552433732313a207472616e73666572206f6620746f6b656e2074686174206960448201526839903737ba1037bbb760b91b6064820152608401610568565b6001600160a01b038216610daf5760405162461bcd60e51b8152602060048201526024808201527f4552433732313a207472616e7366657220746f20746865207a65726f206164646044820152637265737360e01b6064820152608401610568565b610dba600082610b7a565b6001600160a01b0383166000908152600360205260408120805460019290610de3908490611af7565b90915550506001600160a01b0382166000908152600360205260408120805460019290610e11908490611acb565b909155505060008181526002602052604080822080546001600160a01b0319166001600160a01b0386811691821790925591518493918716917fddf252ad1be2c89b69c2b068fc378daa952ba7f163c4a11628f55a4df523b3ef91a4505050565b600780546001600160a01b038381166001600160a01b0319831681179093556040519116919082907f8be0079c531659141344cd1fd0a4f28419497f9722a3daafe3b4186f6b6457e090600090a35050565b610ecd826106ef565b6001600160a01b0316336001600160a01b031614610f2d5760405162461bcd60e51b815260206004820152601f60248201527f796f7520617265206e6f74206f776e6572206f66207468697320746f6b656e006044820152606401610568565b61082d828261110c565b610f42848484610cd2565b610f4e84848484611197565b6109a65760405162461bcd60e51b8152600401610568906119f3565b610f7c82610f7760085490565b6112a4565b610f8e610f8860085490565b82610ec4565b61082d600880546001019055565b6060610fa782610b5d565b61100d5760405162461bcd60e51b815260206004820152603160248201527f45524337323155524953746f726167653a2055524920717565727920666f72206044820152703737b732bc34b9ba32b73a103a37b5b2b760791b6064820152608401610568565b6000828152600660205260408120805461102690611b3a565b80601f016020809104026020016040519081016040528092919081815260200182805461105290611b3a565b801561109f5780601f106110745761010080835404028352916020019161109f565b820191906000526020600020905b81548152906001019060200180831161108257829003601f168201915b5050505050905060006110bd60408051602081019091526000815290565b90508051600014156110d157509050610469565b8151156111035780826040516020016110eb929190611974565b60405160208183030381529060405292505050610469565b610cca846112be565b61111582610b5d565b6111785760405162461bcd60e51b815260206004820152602e60248201527f45524337323155524953746f726167653a2055524920736574206f66206e6f6e60448201526d32bc34b9ba32b73a103a37b5b2b760911b6064820152608401610568565b6000828152600660209081526040909120825161069e92840190611617565b60006001600160a01b0384163b1561129957604051630a85bd0160e11b81526001600160a01b0385169063150b7a02906111db9033908990889088906004016119a3565b602060405180830381600087803b1580156111f557600080fd5b505af1925050508015611225575060408051601f3d908101601f19168201909252611222918101906118bc565b60015b61127f573d808015611253576040519150601f19603f3d011682016040523d82523d6000602084013e611258565b606091505b5080516112775760405162461bcd60e51b8152600401610568906119f3565b805181602001fd5b6001600160e01b031916630a85bd0160e11b149050610cca565b506001949350505050565b61082d828260405180602001604052806000815250611396565b60606112c982610b5d565b61132d5760405162461bcd60e51b815260206004820152602f60248201527f4552433732314d657461646174613a2055524920717565727920666f72206e6f60448201526e3732bc34b9ba32b73a103a37b5b2b760891b6064820152608401610568565b600061134460408051602081019091526000815290565b90506000815111611364576040518060200160405280600081525061138f565b8061136e846113c9565b60405160200161137f929190611974565b6040516020818303038152906040525b9392505050565b6113a083836114e4565b6113ad6000848484611197565b61069e5760405162461bcd60e51b8152600401610568906119f3565b6060816113ee57506040805180820190915260018152600360fc1b6020820152610469565b8160005b8115611418578061140281611b75565b91506114119050600a83611ae3565b91506113f2565b60008167ffffffffffffffff81111561144157634e487b7160e01b600052604160045260246000fd5b6040519080825280601f01601f19166020018201604052801561146b576020820181803683370190505b5090505b8415610cca57611480600183611af7565b915061148d600a86611b90565b611498906030611acb565b60f81b8183815181106114bb57634e487b7160e01b600052603260045260246000fd5b60200101906001600160f81b031916908160001a9053506114dd600a86611ae3565b945061146f565b6001600160a01b03821661153a5760405162461bcd60e51b815260206004820181905260248201527f4552433732313a206d696e7420746f20746865207a65726f20616464726573736044820152606401610568565b61154381610b5d565b156115905760405162461bcd60e51b815260206004820152601c60248201527f4552433732313a20746f6b656e20616c7265616479206d696e746564000000006044820152606401610568565b6001600160a01b03821660009081526003602052604081208054600192906115b9908490611acb565b909155505060008181526002602052604080822080546001600160a01b0319166001600160a01b03861690811790915590518392907fddf252ad1be2c89b69c2b068fc378daa952ba7f163c4a11628f55a4df523b3ef908290a45050565b82805461162390611b3a565b90600052602060002090601f016020900481019282611645576000855561168b565b82601f1061165e57805160ff191683800117855561168b565b8280016001018555821561168b579182015b8281111561168b578251825591602001919060010190611670565b5061169792915061169b565b5090565b5b80821115611697576000815560010161169c565b600067ffffffffffffffff808411156116cb576116cb611bd0565b604051601f8501601f19908116603f011681019082821181831017156116f3576116f3611bd0565b8160405280935085815286868601111561170c57600080fd5b858560208301376000602087830101525050509392505050565b80356001600160a01b038116811461046957600080fd5b60006020828403121561174e578081fd5b61138f82611726565b60008060408385031215611769578081fd5b61177283611726565b915061178060208401611726565b90509250929050565b60008060006060848603121561179d578081fd5b6117a684611726565b92506117b460208501611726565b9150604084013590509250925092565b600080600080608085870312156117d9578081fd5b6117e285611726565b93506117f060208601611726565b925060408501359150606085013567ffffffffffffffff811115611812578182fd5b8501601f81018713611822578182fd5b611831878235602084016116b0565b91505092959194509250565b6000806040838503121561184f578182fd5b61185883611726565b91506020830135801515811461186c578182fd5b809150509250929050565b60008060408385031215611889578182fd5b61189283611726565b946020939093013593505050565b6000602082840312156118b1578081fd5b813561138f81611be6565b6000602082840312156118cd578081fd5b815161138f81611be6565b6000602082840312156118e9578081fd5b5035919050565b60008060408385031215611902578182fd5b82359150602083013567ffffffffffffffff81111561191f578182fd5b8301601f8101851361192f578182fd5b61193e858235602084016116b0565b9150509250929050565b60008151808452611960816020860160208601611b0e565b601f01601f19169290920160200192915050565b60008351611986818460208801611b0e565b83519083019061199a818360208801611b0e565b01949350505050565b6001600160a01b03858116825284166020820152604081018390526080606082018190526000906119d690830184611948565b9695505050505050565b60006020825261138f6020830184611948565b60208082526032908201527f4552433732313a207472616e7366657220746f206e6f6e20455243373231526560408201527131b2b4bb32b91034b6b83632b6b2b73a32b960711b606082015260800190565b6020808252818101527f4f776e61626c653a2063616c6c6572206973206e6f7420746865206f776e6572604082015260600190565b60208082526031908201527f4552433732313a207472616e736665722063616c6c6572206973206e6f74206f6040820152701ddb995c881b9bdc88185c1c1c9bdd9959607a1b606082015260800190565b60008219821115611ade57611ade611ba4565b500190565b600082611af257611af2611bba565b500490565b600082821015611b0957611b09611ba4565b500390565b60005b83811015611b29578181015183820152602001611b11565b838111156109a65750506000910152565b600181811c90821680611b4e57607f821691505b60208210811415611b6f57634e487b7160e01b600052602260045260246000fd5b50919050565b6000600019821415611b8957611b89611ba4565b5060010190565b600082611b9f57611b9f611bba565b500690565b634e487b7160e01b600052601160045260246000fd5b634e487b7160e01b600052601260045260246000fd5b634e487b7160e01b600052604160045260246000fd5b6001600160e01b031981168114610b5a57600080fdfea2646970667358221220467c8a916b486dd1437a8856dbd88a7fff1161cc938f8e025037f6e46b5e1e9d64736f6c63430008030033",
  "linkReferences": {},
  "deployedLinkReferences": {}
}